:020000040800F2
:10000000400A0020B103000859C100080DB50008DE
:1000100055C100086519000805EA0008C303000877
:10002000000000000000000000000000F9C500080A
:100030002925000800000000C9C1000851C60008B9
:10004000CD030008CD030008CD030008CD03000850
:10005000CD030008CD030008CD030008CD03000840
:10006000CD030008CD030008CD030008CD03000830
:10007000CD030008CD030008CD030008CD03000820
:10008000CD030008CD030008CD030008CD03000810
:10009000CD030008CD030008CD030008CD03000800
:1000A000CD030008CD030008CD030008CD030008F0
:1000B000000000003D250008CD030008CD03000826
:1000C000CD030008CD030008CD030008CD030008D0
:1000D000CD030008CD030008CD030008CD030008C0
:1000E000CD030008CD030008CD030008CD030008B0
:1000F000CD030008CD030008CD030008CD030008A0
:10010000CD030008CD030008CD030008CD0300088F
:10011000CD030008CD030008CD030008CD0300087F
:10012000CD030008CD030008CD030008CD0300086F
:10013000CD030008CD030008CD030008F5E9000851
:10014000CD030008CD030008CD030008CD0300084F
:10015000CD030008CD030008CD030008CD0300083F
:10016000CD030008CD030008CD030008CD0300082F
:10017000CD030008CD030008CD030008CD0300081F
:10018000CD030008CD030008CD030008CD0300080F
:10019000CD030008CD030008CD030008CD030008FF
:1001A000CD030008CD030008CD030008CD030008EF
:1001B000CD03000800000000CD030008CD030008B7
:1001C000CD03000800000000CD030008CD030008A7
:1001D000CD030008CD030008CD030008CD030008BF
:1001E000CD030008CD030008CD030008CD030008AF
:1001F0000000000000000000CD030008CD0300084F
:10020000CD030008CD030008CD030008CD0300088E
:10021000CD030008CD030008CD030008CD0300087E
:10022000CD030008CD030008CD030008CD0300086E
:10023000CD030008CD03000800F002F800F0A8F894
:1002400014A696E8000CB244B344DA4501D100F09C
:100250009FF8BAE80F000FA696E83000A5EB04055A
:1002600004EB0607AAEB0704A7F101074FEA1515EF
:100270004FEA3414A4F10104AC4201D300F088F831
:1002800013F0010F18BFFB1A43F0010300F001F84F
:10029000DBE718470C0B01002C0B0100103A24BFC0
:1002A00078C878C1FAD8520724BF30C830C144BFDB
:1002B00004680C60704700007047000000230024B1
:1002C00000250026103A28BF78C1FBD8520728BF66
:1002D00030C148BF0B6070476E2900F00F82702953
:1002E00000F06383662910F04C83652910F0498380
:1002F000672910F04683612910F0458303681B0AC3
:1003000028BF41F08001692900F0BC81642900F018
:10031000B981752900F0B6816F2900F0F182782942
:1003200000F02F83E92900F08B82E42900F0888215
:10033000F52900F08582EF2900F0EE82F82900F01F
:100340002E830368DB0928BF41F08001632901F097
:100350002F80732901F03480E32901F03F80F329D5
:1003600001F04480002070471FB510F0FDFA01F045
:1003700097F804000020002110F0B0F8401C6060E5
:100380000020002110F094F8E0601FBD10B510BDF2
:1003900001F058F81146FFF7E7FF0EF09DFD01F060
:1003A00035F903B4FFF7F2FF03BC0EF08DFB00003C
:1003B0000A4880470A480047FEE7FEE7FEE7FEE7F7
:1003C000FEE7FEE7FEE7FEE7FEE7FEE7FEE70000EA
:1003D00004480549054A064B70470000F5C6000869
:1003E0003902000840040020400A00204006002096
:1003F00040060020704753EA020C00F069802DE9A6
:10040000F04B4FF00006002B1FBFB3FA83F503FA41
:1004100005F424FA05F65E4012BF1643B2FA82F5DF
:1004200002FA05F4C5F120051EBF22FA05FC44EAD4
:100430000C04203556EA044C4FEA144418BF641CDF
:100440004FF000084FF00009904271EB030C39D3D4
:10045000002919BFB1FA81F701FA07F6B0FA80F75F
:1004600000FA07F6C7F120071EBF20FA07FC46EA8C
:100470000C062037B6FBF4FCA7EB0507103F07F08E
:100480001F0BCBF120062CFA06F60CFA0BFB44BF2F
:10049000B3460026202FA4BF5E464FF0000B5BEA58
:1004A000060C08BF4FF0010B19EB0B0948EB0608CF
:1004B000ABFB027C06FB02CC0BFB03CCC01B71EB3D
:1004C0000C01C1E70B46024641464846BDE8F08BA9
:1004D00013B5084318BF4FF0FF300146AFF300805B
:1004E000BDE81C40704700000FB4044910B503AAD2
:1004F000029800F035F910BC5DF814FBC80000202C
:100500000FB41CB5084B06AA7B44694600900598B9
:1005100000F00DF904460020694600F01BF9204662
:100520001CBC5DF814FB00004902000010B5431C20
:1005300002E010F8011B71B18107FAD14FF00132CE
:1005400002C88C1A8C4314EAC211F9D0C01A0A06E8
:1005500003D0C01E10BDC01A10BD0A0401D0801EF9
:1005600010BD0902FCD0401E10BD4FF0000200B5C6
:10057000134694469646203922BFA0E80C50A0E8C6
:100580000C50B1F12001BFF4F7AF090728BFA0E874
:100590000C5048BF0CC05DF804EB890028BF40F840
:1005A000042B08BF704748BF20F8022B11F0804F82
:1005B00018BF00F8012B70477047704770477047AD
:1005C00070B5044685690068C10601D5302600E093
:1005D0002026C00707D070BDD4E9012130469047DE
:1005E000206A401C20626D1EF6D570BD70B50446B1
:1005F00085690078C00707D170BDD4E901212020AA
:100600009047206A401C20626D1EF6D570BD0968B7
:100610004A0501D540B27047C905FCD500B2704704
:1006200009684A0501D5C0B27047C905FCD580B23A
:10063000704770B50C460546012A05D0287880061B
:1006400000D5EA69002302E0012305E05B1C934228
:1006500002D2E05C0028F9D1A869E618C01AA861A6
:10066000286A184428622846FFF7AAFF04E0D5E963
:10067000012114F8010B9047B442F8D32846FFF744
:10068000B5FF70BD2DE9F0410646002410687529BC
:10069000314616A510D0FFF7BAFF002802DA404213
:1006A00013A507E031688A0701D512A502E04907C2
:1006B00004D511A5012401E0FFF7B2FF00210A22B1
:1006C00006F1240709E0B0FBF2FCB0FBF2F302FBF9
:1006D0001C00303078541846491C0028F3D12346BA
:1006E0002A463046BDE8F04100F073BA0000000031
:1006F0002D0000002B00000020000000116802689F
:10070000006A530501D508700AE0D30501D50880B9
:1007100006E0130603D5C217C1E9000200E0086035
:100720000120704701694A1C02610878704700B5D2
:100730008FB0CDE901310021059105497944CDE91A
:1007400003101146684600F03BF90FB000BD0000F1
:10075000E5FFFFFF0A6802F8010B0A60704700001E
:10076000074B70B50D467B44FFF7E1FF0446284672
:1007700000F040FE10B14FF0FF3070BD204670BD5C
:1007800047E700002DE9FF5F15468A460446DFF87B
:10079000AC80F8440027D8E900103E46CDE90010AF
:1007A00010E03AF816106A4602A800F027FE411C35
:1007B00007D02178890603D5E269391891420DD80E
:1007C0000744761C2078800602D5E069B84205DD32
:1007D000AE42E6DB3AF816000028E2D1A069C01B61
:1007E000A0612046FFF7ECFED8E90010CDE900102B
:1007F000002017E03AF818106A4602A800F0FEFD43
:10080000B0F1FF3F81460BD000250DF1080B05E04C
:10081000D4E901211BF8050090476D1C4D45F7D325
:1008200008F10100B0428046E4DB206A38442062CF
:100830002046FFF7DBFEBDE8FF9F0000F601010048
:100840002DE9F0418046D21D22F007020025D2E9B1
:100850000002F52915A614D0011E72F1000106DA76
:100860000023D0EB030063EB020211A608E0D8F8E6
:1008700000108B0701D50FA602E0490701D50EA68F
:1008800001251146002408F1240704E000F05CF97A
:1008900030323A55641C50EA0102F7D12B463246F9
:1008A00021464046BDE8F04100F093B90000000049
:1008B0002D0000002B0000002000000030B40021BB
:1008C00000F1240408E002F00705D208303542EABE
:1008D0004372DB086554491C52EA0305F3D10468EE
:1008E000002310A2250708D504F020040C4304D0EF
:1008F000C46901230CA2641EC46130BC00F069B954
:1009000010B5044621461068FFF78AFE02462046CD
:10091000BDE810400023D1E7D21D22F00701D1E944
:100920000023CBE70000000030000000F0B40D46CB
:100930000188090502D5214C7C4402E01F4C7C440F
:100940000E34002100F1240608E002F00F0712091E
:10095000E75D42EA03721B097754491C52EA030718
:10096000F3D102780023120704D5702D06D009B107
:10097000022311342246F0BC00F02BB901231034BD
:10098000F8E770B504460D4621461068FFF748FEAB
:10099000024629462046BDE870400023C6E7D21D26
:1009A00022F00703D3E90023C0E70368126843F08D
:1009B000200303600823C3610023B7E75800010048
:1009C0002DE9F05F894604464FF0000ADFF874B164
:1009D000FB44C0F820A02046E1688847002874D076
:1009E000252806D0D4E901219047206A401C2062C6
:1009F000F1E700265F462046E16888472028054643
:100A000007DB312D05D2781910F8200C08B1064308
:100A1000F1E7B00701D526F00406C4F81CA00027B2
:100A2000C4F818A02A2D09D028460FF039FD38B394
:100A300004EB8708303DC8F8185019E059F8041B3A
:100A4000204604EB87029161E1688847012F054643
:100A500018D1E069002820DA26F020061DE0D8F839
:100A6000180000EB800005EB40003038C8F8180093
:100A70002046E168884705460FF012FD0028EED1B8
:100A8000012F0AD02E2D08D12046E16888477F1C0F
:100A90000546022F46F02006C4DBA069002803DAD1
:100AA000404246F00106A061F00701D026F0100692
:100AB0006C2D0BD0682D09D04C2D39D06A2D35D036
:100AC000742D35D07A2D33D016E038E0E1682F460A
:100AD00020468847B842054609D16C2F26D04FF4EE
:100AE0008060E168064320468847054604E06C2F95
:100AF0001AD04FF4807006430DB3A5F141001928B8
:100B000002D8203546F400664A462946204626602B
:100B10004E46FFF7E1FB80B101280BD0F61D26F011
:100B2000070000F1080956E74020E4E78020D8E7F5
:100B30000020D6E706F104094DE7284652E7206A6F
:100B4000BDE8F09FE8FF000030B5B0F10A0271F196
:100B500000034FEA900E4EEA817EB0EB0E0061EB8F
:100B600091014FEA101E4EEA017E10EB0E0041EBA0
:100B700011114FEA102E4EEA016E10EB0E0041EB00
:100B800011214FEA104E4EEA014E10EB0E0041EBE0
:100B90001141401841F100014FEAD00040EA417094
:100BA0004FEAD1014FEA810444EA907410EB8005CA
:100BB00044EB01046D1944EB0404521BA3414FF0B4
:100BC000000348BF0A3200D530BD401C41F100018E
:100BD00030BD2DE9F0470D4699469246044600F196
:100BE00024080168880604D5E06921F0100121601D
:100BF00000E00120A84201DD471B00E00027A169B9
:100C00007A1902EB0900081AA0612078C00602D404
:100C10002046FFF7D5FC002608E0D4E901211AF8A8
:100C200006009047206A401C761C20624E45F4DB8B
:100C30002078C0060AD52046FFF7C2FC06E0D4E9BA
:100C4000012130209047206A401C2062381EA7F105
:100C50000107F4DC07E0D4E9012118F8050090470A
:100C6000206A401C2062281EA5F10105F3DC204605
:100C7000FFF7BCFC2078000602D50220BDE8F08713
:100C80000120FBE72DE9FF4F0C461E464FF0FF37D2
:100C90008BB0D2E90001DDF860800A908A46C1F38A
:100CA0000A5505B93D46002108464FF00000BAF14B
:100CB000000F00F4400005DA00EB80004FF4400123
:100CC00001EA50004FEA9059B9F1010F00DDB94631
:100CD0000A9850EA4A000ED044F61050A5F2FF35AB
:100CE00045432F14B8F1000F1ED07542291E1EDD9A
:100CF000C9F100021CE0B8F1010F4FF0000001D073
:100D0000302103E0F24305E02154401CB042FBDBFC
:100D100030460022002121540B99C1F80880C1E916
:100D200000200FB0BDE8F08FBD1B6D1CDEE74A460A
:100D300000DA694206A800F0F7FB06AB93E807006B
:100D400003AB83E8070050460A990EF0C8FF8DE810
:100D50000700A0F500501F3800900398002D0ADD11
:100D600042F21F014A460844002303A90390684643
:100D70000FF032FA09E0A0F500504A461F38002370
:100D800003A9039068460FF03CFA8DE807000004C1
:100D9000000C03D04FF0FF30410800E01046B8F1DE
:100DA000000F03D00022009215461EE0751E05D4E8
:100DB000FFF7CAFE303262556D1EF9D5B3460122E7
:100DC000084302D000227F1C04E02078302801D1A3
:100DD00000227F1E002A099784D01DE0112D07DA1A
:100DE000FFF7B2FE303262556D1C50EA0102F5D1B8
:100DF000084302D00098C8B10EE00021681E05E04B
:100E0000235C625C63542254401E491C8142F7DB20
:100E1000AB46A81B401E0990002004F80B000B985D
:100E2000099AC0F80880C0E9002B7AE711264FF034
:100E3000000857E72DE9F04F88460446D21D22F0FE
:100E4000070191B0D1E90001CDE90A010FF010FBD3
:100E500002460B98C00F01D02D2007E020688107C3
:100E600001D52B2002E0202101EAC000032A0990CD
:100E700001D0072A05DB03464146204600F014FB5B
:100E80000BE12078800601D5E06900E00620B8F18A
:100E9000650F814606D0B8F1660F18D0B8F1670F1C
:100EA00070D131E00020B9F1110F009001DB112366
:100EB00001E009F101030AAA01A90CA8FFF7E2FE6B
:100EC000DDE90C70002609F10105834647E00120A9
:100ED0004B4600904FF000470AAA01A90CA8FFF763
:100EE000D1FEDDE90DB00C995D46002610B909F17F
:100EF00001000D18B9EB050003D4C0F1FF3609F16C
:100F00000105A5EB09002BE0B9F1010F01DA4FF063
:100F100001090020B9F1110F0090484601DD1123AD
:100F200000E003460AAA01A90CA8FFF7ABFEDDE921
:100F30000C704D4600268346207800070AD4AB4546
:100F400000DA5D4601A8012D04DD411911F8011CEC
:100F5000302907D04F4502DA17F1040F04DA0120D7
:100F600082460FE06D1EEEE7002F02DCED1B3E44D3
:100F700003E0781CA84200DD7D1CB81B00F1010ACB
:100F80004FF000472078000703D4AA4501DB4FF05B
:100F9000FF3A0021B7F1004F0DF143088DF84310DF
:100FA00024D002202B23002F01DA7F422D230A2197
:100FB000021EA0F1010000DC5FB197FBF1FC97FB82
:100FC000F1F201FB1C7C17460CF1300C08F801CD46
:100FD000EEE7A8F1010003702188090501D545213C
:100FE00000E06521A0F1010800F8011C09980FA993
:100FF000A1EB0807FF1D00B10120411901EBEA70C8
:10100000A1693844081A401EA0612078C00602D4A5
:101010002046FFF7D5FA099828B1D4E90121904775
:10102000206A401C20622078C00622D52046FFF7A7
:10103000C7FA1EE0002E04DBB34502DD01A8805D87
:1010400000E03020D4E901219047206A401C206252
:10105000761CAAF101005FEA000A0AD100F020FA2A
:10106000C0680168405CD4E901219047206A401CB7
:101070002062281EA5F10105DCDC07E0D4E901218E
:1010800018F8010B9047206A401C2062381EA7F117
:101090000107F3DC2046FFF7A9FA032011B041E66F
:1010A0002DE9F04F04460D46D21D22F0070089B00D
:1010B000D0E90097484639460FF0DAF90246F80FB2
:1010C00001D02D2307E02068810701D52B2302E002
:1010D000202101EAC0038DF820300BB1012000E08F
:1010E0000020032A824601D0072A04DB2946204635
:1010F00000F0DAF93FE12078800601D40D2500E008
:10110000E569C7F30A560D2D49DA00214FEA175B4E
:1011100008464FF00000002F00F4400007DA00EB13
:1011200080004FF4400100EBD07001EA60008115AF
:10113000012901DD4FF0FF3100224FEA850CBCF19F
:10114000180F06D31346ACF118004FF08052C2407E
:1011500003E04FF4801323FA0CF30CF10C0CBCF1F8
:10116000200F04D3ACF1200C09FA0CF001E007FACF
:101170000CF000294FF0004801DD18B90FE00ED146
:1011800040450CD319EB02095F4121B9404502D11A
:101190009F4329EA0209BBEB175F00D0761C208829
:1011A000000502D57B48784402E07A487844193833
:1011B00008AA302302F80A30037C0AF10101002E4C
:1011C0000AF1020A53546A4602DC4FF0300101E092
:1011D0004FF031014FF001088DF8001002D0A6F257
:1011E000FF3603E059EA470100D06B4E002D02DCC8
:1011F0002178090704D54FF002082E218DF801103F
:10120000C44600210BE0C7F303433F01C35C491C04
:101210006D1E02F80830052908F1010801DA002DD9
:10122000F1DC00210CE000EB1973491C1B786D1EEA
:10123000082902F808304FEA091908F1010801DA13
:10124000002DF0DC21688B0602D516E0A8F101081C
:10125000E04505DD02EB080313F8013C302BF5D027
:10126000B8F1000F09DD02EB080313F8013C2E2B47
:1012700003D1090701D4A8F10108002D05DD3E21A5
:1012800002F808106D1E08F10108407C002E02F8DB
:10129000080008F1010804DA2D20764202F808005F
:1012A00002E02B2002F808000A214FF47A708642EF
:1012B00008F101080BDB96FBF0F3303302F808303D
:1012C00096FBF0F308F1010800FB136601E0642EC1
:1012D0000CDB642096FBF0F3303302F8083096FB09
:1012E000F0F308F1010800FB136601E00A2E06DBAB
:1012F00096FBF1F0303002F8080008F1010896FB87
:10130000F1F001FB1060303002F80800A16908F12B
:10131000010808EB050202EB0A00081AA061207818
:10132000C00602D42046FFF74BF9216A08AE01EB54
:101330000A00206204E0D4E9012116F8010B90476D
:10134000BAF1010AF7D22078C00602D52046FFF78D
:1013500037F96E4609E016F8010B3E280FD0D4E9A4
:1013600001219047206A401C2062B8F10108F2D2A6
:101370002046FFF73BF909B00320BDE8F08F206A53
:101380002844206203E0D4E90121302090476D1EFB
:10139000EBD3F8E736F8000002FCFFFF10B5436915
:1013A00013B1AFF3008001E0FFF743F9012010BD56
:1013B000127800F124010A7000224A700122EDE740
:1013C00011684FF0FF32E9E710B5436913B1AFF38D
:1013D000008001E0FFF7D6F9012010BD128800F16E
:1013E000240182840022C2840122EDE711684FF0BB
:1013F000FF32E9E7007B00F0800070472DE9F04103
:1014000016460C46054600F043F8036893F80101C0
:10141000012807D0FF2C12D8185D80B101202C7054
:10142000BDE8F081D3F807013246214603F20713E5
:10143000C7182846BC46BDE8F041002360474FF07E
:10144000FF30EDE7754600F0EBF8AE460500694663
:10145000534620F00700854618B020B5FEF7B8FFC8
:10146000BDE820404FF000064FF000074FF00008A5
:101470004FF0000BAC46ACE8C009ACE8C009ACE8E2
:10148000C009ACE8C00921F007018D467047000093
:1014900010B500F005F8001D10BD00BF41F00000C0
:1014A00000487047480000202DE9F0411F460446DF
:1014B00003260168072A01F4006004DB08B116A5C1
:1014C00005E016A503E008B115A500E015A521F07B
:1014D00010002060A069C01EA0610FB1401EA06175
:1014E0002046FFF76DF84FB1D4E901213846904707
:1014F000206A401C2062C01C206206E0206AFAE7D5
:10150000D4E9012115F8010B9047761EF8D2204648
:10151000FFF76CF8BDE8F0814E414E006E616E0041
:10152000494E4600696E66002DE9F0478146164631
:101530008AB0354878440DC88DE80D0032487844AB
:10154000801C03AC0DC884E80D0041F69B300844B4
:10155000372190FBF1F290FBF1F5A5F1800501FB3D
:1015600012041B3C02D56442012000E00020DFF899
:1015700098A080460027FA44AAF1BE0A0EE0E007D0
:101580000AD03246684607EB470101230AEB810186
:101590000EF037FE8DE8070064107F1C002CEED1A2
:1015A000194F7F44AE3F19E0E80715D007EB041050
:1015B0000DF1180A90E80E008AE80E00C068F042AB
:1015C00001D1981908903246012306A903A80EF00C
:1015D00018FE03AB83E807006D10641C002DE3D1F7
:1015E0004FF0010332466946B8F1000F03A802D05C
:1015F0000EF0F2FD01E00EF004FEC9E90001C9F8A9
:1016000008200AB0BDE8F08738F5000010B50446A0
:10161000AFF300802046BDE81040FEF7C2BE0000D8
:10162000004870472800002030B44FF0013C50F8CB
:10163000042B51F8043BCCFA52F4D51A20D1FCB952
:1016400050F8042B51F8043BCCFA52F4D51A17D1B8
:10165000B4B950F8042B51F8043BCCFA52F4D51A23
:101660000ED16CB950F8042B51F8043BCCFA52F46B
:10167000D51A05D1002CDAD030BC4FF000007047ED
:1016800029BAB1FA81F111F01801D1F1200084409A
:10169000F2D1CA40CB4012F0FF0213F0FF0330BC7E
:1016A000D01A704780B582B001900198C06D00904B
:1016B0000098806F10F0500F4AD1FFE70099886FB3
:1016C00040F40070886700980068006800070028F0
:1016D00021D5FFE70098006809F0A2FFD0B1FFE72D
:1016E00000980068C0688004002812D4FFE70099C1
:1016F000886F20F4807088670098806FC00400288D
:1017000006D4FFE70099886F40F001008867FFE783
:10171000FFE7FFE718E000980068C068800790B90D
:10172000FFE70099886F20F4807088670098806FC9
:10173000C004002806D4FFE70099886F40F001003C
:101740008867FFE7FFE7FFE7009801F0BFFF10E0C1
:101750000098806FC006002804D5FFE7009801F0CC
:10176000CDFF05E00098006F816E01988847FFE784
:10177000FFE702B080BD000080B582B00190019803
:10178000C06D00900099886F40F040008867009914
:10179000C86F40F00400C867009801F0AFFF02B0C6
:1017A00080BD000080B582B001900198C06D0090AE
:1017B000009801F09FFF02B080BD000080B584B0AA
:1017C00002900298006809F00BFF009002980068F0
:1017D00009F00EFF00284BD0FFE70098002847D102
:1017E000FFE702980068806800F00D00012809D129
:1017F000FFE70298006809F08BFE02980168032059
:1018000008600DE00299886F40F010008867029927
:10181000C86F40F00100C86701208DF80F002BE071
:1018200003F03EFE0190FFE7029800688068C00761
:10183000E8B1FFE703F034FE0199401A032815D3FD
:10184000FFE7029800688068C00770B1FFE702995F
:10185000886F40F0100088670299C86F40F001005F
:10186000C86701208DF80F0006E0FFE7DCE7FFE71F
:1018700000208DF80F00FFE79DF80F0004B080BD39
:1018800080B584B002900298006809F0B1FE00288B
:1018900060D1FFE70298006880683F21C8F200012C
:1018A00008420ED0FFE70299886F40F01000886769
:1018B0000299C86F40F00100C86701208DF80F0041
:1018C0004CE002980168012008600298006809F065
:1018D00039FE0298006A48B1FFE70298006841F2B9
:1018E0000001C4F20261884233D0FFE703F0D8FD63
:1018F0000190FFE7029800680068C00740BBFFE75F
:101900000298006809F074FE28B9FFE702980068A1
:1019100009F018FEFFE703F0C3FD0199401A032800
:1019200015D3FFE7029800680068C00770B9FFE7A9
:101930000299886F40F0100088670299C86F40F0E4
:101940000100C86701208DF80F0007E0FFE7D1E72D
:10195000FFE7FFE700208DF80F00FFE79DF80F007D
:1019600004B080BDFFE7FEE783B002900191029BC7
:101970001A6958699969D3F81CC040EA0C00DB6BFE
:1019800018431043084301990860029800788006C4
:1019900000281BD5FFE702994A6A8B6AC86A896BDF
:1019A00008430021CFF6F07101EB035101F07C7187
:1019B00008436FF00F0101EB021101F47C7140EA62
:1019C00001020199086810430860FFE70298416826
:1019D000006B40F27F221140084301994860029851
:1019E000C068B0F5806F0DD1FFE7029800788006DF
:1019F000002806D5FFE70199486840F480604860F8
:101A0000FFE70DE00298C068B0F5007F06D1FFE760
:101A10000199486840F40070486000E0FFE7FFE784
:101A20000298406C70B1FFE70299086C4A6C896CAF
:101A3000104301F03F0140EA014201994868104318
:101A40004860FFE70298B0F8680001998860029842
:101A500000788007002859D5FFE70298C16C002064
:101A6000CFF6FF7000EB01400021C0F2FF7100EAE9
:101A7000010201998868104388600298006DB0F1F6
:101A8000FF3F06DCFFE70199886840F080508860DE
:101A900005E00199886820F080508860FFE702988F
:101AA000406DB0F1FF3F06DCFFE70199886840F028
:101AB0000050886005E00199886820F00050886037
:101AC000FFE70298806DB0F1FF3F06DCFFE7019968
:101AD000886840F08040886005E00199886820F0BF
:101AE00080408860FFE70298C06DB0F1FF3F06DCE0
:101AF000FFE70199886840F00040886005E001999F
:101B0000886820F000408860FFE7FFE70298006ED9
:101B10000199C8600298406E0199086102980078A6
:101B20008007002867D5FFE70298006DB0F1FF3FFE
:101B30000ADCFFE70298006D4042009000986FF3C6
:101B40005F300199486106E00298006D6FF35F30E5
:101B500001994861FFE70298406DB0F1FF3F0FDC4B
:101B6000FFE70298406D4042009000990020C1F6C6
:101B7000FF7000EA014201994869104348610BE097
:101B80000298416D0020C1F6FF7000EA0142019900
:101B9000486910434861FFE70298806DB0F1FF3F4C
:101BA00009DCFFE70298806D40420090BDF800001C
:101BB0000199886105E00298B0F8580001998861A0
:101BC000FFE70298C06DB0F1FF3F0BDCFFE7029822
:101BD000C06D40420090009A0199886940EA024035
:101BE000886107E00298C26D0199886940EA024065
:101BF0008861FFE7FFE70298006801990862029890
:101C000000788007002806D5FFE70199086A40F4AC
:101C1000E060086205E00199086A40F4A06008628B
:101C2000FFE703B07047000086B004900391029272
:101C3000049803990843029908434FF6FF718843BB
:101C4000019000200090049818B1FFE704980090DC
:101C50000EE0039818B1FFE70398009007E00298A0
:101C600018B1FFE70298009000E0FFE7FFE7FFE709
:101C70000198BDF80210B0EB014F03D0FFE701203F
:101C8000059002E000200590FFE7059806B0704738
:101C900085B003900291019200200090039828B132
:101CA000FFE7039890F82000009012E0029828B116
:101CB000FFE7029890F82000009009E0019828B111
:101CC000FFE7019890F82000009000E0FFE7FFE7B1
:101CD000FFE7029858B1FFE70098029991F82010A9
:101CE000884203D0FFE70220049011E0FFE701984B
:101CF00058B1FFE70098019991F82010884203D06D
:101D0000FFE70320049003E0FFE700200490FFE7D3
:101D1000049805B07047000089B0079006910592BD
:101D200000200490039002900598006801900698A6
:101D300028BBFFE7FFE704980799896888421DD20E
:101D4000FFE7049838B9FFE7079800684FF6FC7181
:101D5000084003900EE00398029003980799498881
:101D600000EB0140019950F821004FF6FC7108404A
:101D70000390FFE7049801300490DCE734E0FFE7CC
:101D80000499079882680020914200900AD2FFE7E8
:101D9000039806994FF6FC721140401A18BF0120B3
:101DA0000090FFE70098C007E8B1FFE7049838B952
:101DB000FFE7079800684FF6FC71084003900EE0BB
:101DC0000398029003980799498800EB0140019914
:101DD00050F821004FF6FC7108400390FFE704988B
:101DE00001300490CCE7FFE7069860B1FFE7039865
:101DF00006994FF6FC721140884203D0FFE701209C
:101E0000089029E0FFE704980599886002980799EF
:101E1000498840EA01400599486003980799498834
:101E200040EA01400599C8600598C068019950F8DA
:101E3000210070B1FFE70599C868019A50F82200A7
:101E40004FF6FC721040079A528840EA024008613F
:101E5000FFE700200890FFE7089809B070470000EE
:101E600083B0029001910092029890F820008007C0
:101E7000002811D5FFE7019830B1FFE70199002054
:101E8000CFF601600860FFE7009820B1FFE70099F6
:101E900007200860FFE710E0019830B1FFE70199E3
:101EA0000020CFF601000860FFE7009820B1FFE7AF
:101EB000009905200860FFE7FFE703B070470000C6
:101EC00083B002900191019890F820000299086077
:101ED0000198006800F00800029908610198006804
:101EE00000F40020029948610198006800F00300A6
:101EF000029988610198006800F440300299C86135
:101F00000198006800F47C71012000EB1111029A25
:101F100051620199096801F07C7100EB115002993E
:101F200088620198006800F040200299C862019818
:101F3000006842F20001C0F600410840029988633F
:101F40000198006800F4C0500299C8630198407974
:101F50008007002807D5FFE702994FF4007048601A
:101F60000299C86015E00198406800F07F0002996E
:101F70004860019840794007002805D5FFE702999D
:101F80004FF48060C86003E002990020C860FFE75A
:101F9000FFE70198406800F40060029988600198AA
:101FA000406800F44040029908640198406800F0DD
:101FB00040700299486401984068C0F30540029956
:101FC00088640198406800F04040029908630198D5
:101FD00000890299886602980078800700280CD54D
:101FE000FFE7019880680021C0F2FF7101400120E5
:101FF00000EB11400299C86403E002990120C86413
:10200000FFE70198C0680299086601980069029983
:102010004866029800788007002851D5FFE70198AC
:1020200040696FF35F30ADF80200BDF8020002991D
:10203000086501984069C0F30C40ADF80200BDF896
:102040000200029948650198C07AC006002805D5AB
:10205000FFE70299086D40420865FFE70198C07AE2
:102060008006002805D5FFE70299486D4042486583
:10207000FFE701988069ADF80200BDF802000299FF
:1020800088650198408BADF80200BDF80200029906
:10209000C8650198C07A4006002805D5FFE7029977
:1020A000886D40428865FFE70198C07A00060028E5
:1020B00005D5FFE70299C86D4042C865FFE709E012
:1020C000029900200865029948650299886502997D
:1020D000C865FFE703B0704784B003900399886B2D
:1020E000C96B084302900398016801205022C4F292
:1020F00002029142019000F06781FFE703980168B6
:1021000001205022C5F202029142019000F05C8150
:10211000FFE7039801680120D022C4F20202914235
:10212000019000F05181FFE7039801680120D0225F
:10213000C5F202029142019000F04681FFE7039848
:102140000168012040F25012C4F202029142019053
:1021500000F03A81FFE703980168012040F2501235
:10216000C5F202029142019000F02E81FFE7039830
:102170000168012040F2D012C4F2020291420190A3
:1021800000F02281FFE703980168012040F2D0129D
:10219000C5F202029142019000F01681FFE7039818
:1021A0000168012040F25022C4F2020291420190E3
:1021B00000F00A81FFE703980168012040F25022F5
:1021C000C5F202029142019000F0FE80FFE7039801
:1021D0000168012040F2D022C4F202029142019033
:1021E00000F0F280FFE703980168012040F2D0225E
:1021F000C5F202029142019000F0E680FFE70398E9
:102200000168012040F25032C4F202029142019072
:1022100000F0DA80FFE703980168012040F25032B5
:10222000C5F202029142019000F0CE80FFE70398D0
:102230000168012040F2D032C4F2020291420190C2
:1022400000F0C280FFE703980168012040F2D0321D
:10225000C5F202029142019000F0B680FFE70398B8
:102260000168012040F25042C4F202029142019002
:1022700000F0AA80FFE703980168012040F2504275
:10228000C5F202029142019000F09E80FFE70398A0
:102290000168012040F2D042C4F202029142019052
:1022A00000F09280FFE703980168012040F2D042DD
:1022B000C5F202029142019000F08680FFE7039888
:1022C0000168012040F25052C4F202029142019092
:1022D0007AD0FFE703980168012040F25052C5F21E
:1022E0000202914201906FD0FFE70398016801203C
:1022F00040F2D052C4F202029142019064D0FFE752
:1023000003980168012040F2D052C5F202029142C6
:10231000019059D0FFE703980168012040F2506214
:10232000C4F20202914201904ED0FFE70398016887
:10233000012040F25062C5F202029142019043D066
:10234000FFE703980168012040F2D062C4F2020264
:102350009142019038D0FFE703980168012040F2D4
:10236000D062C5F20202914201902DD0FFE703989E
:102370000168012040F25072C4F2020291420190C1
:1023800022D0FFE703980168012040F25072C5F2A5
:1023900002029142019017D0FFE7039801680120E3
:1023A00040F2D072C4F20202914201900CD0FFE7D9
:1023B000039800684FF63001CAF6FD710844B0FA80
:1023C00080F040090190FFE70198C00730B1FFE7B6
:1023D0000398016C029808430290FFE70398006895
:1023E000406920F443000299084303990968486151
:1023F000039801680020086403990A68496C5164D5
:1024000003990968886403990968C864039909688D
:10241000086503980168012040F25062C4F202028C
:10242000914200904ED0FFE703980168012040F2EE
:102430005062C5F202029142009043D0FFE7039838
:102440000168012040F2D062C4F202029142009081
:1024500038D0FFE703980168012040F2D062C5F24E
:102460000202914200902DD0FFE7039801680120FD
:1024700040F25072C4F202029142009022D0FFE773
:1024800003980168012040F25072C5F202029142A5
:10249000009017D0FFE703980168012040F2D07246
:1024A000C4F20202914200900CD0FFE7039800684A
:1024B0004FF63001CAF6FD710844B0FA80F04009C9
:1024C0000090FFE70098C00740B1FFE7039801685C
:1024D00000204865039909688865FFE7039801684B
:1024E0000020C86704B0704784B003900291019245
:1024F000009303980068806C4FF6FF718843BDF825
:1025000000100844039909688864039801684FF42F
:10251000FE40C860029803990968C864019803994D
:102520000968086504B070477047000081B0EFF398
:10253000108072B60090FFE7FEE7000080B540F221
:10254000D010C2F2000002F07BFB80BD80B58AB0E3
:1025500008900791069200200490FFE7089890F8F1
:102560007400012804D1FFE702208DF827004DE117
:102570000899012081F87400FFE7FFE70898FFF74A
:102580001DF98DF817009DF81700002840F02D81E7
:10259000FFE70898806F40F0020020F48850089907
:1025A00088670898006841F20001C4F2026188421D
:1025B0004FD1FFE708980068406C00F001000290DE
:1025C00008980068C06800F003000390089801684C
:1025D000C86820F00300C86008980168486C20F0C3
:1025E0000100486408980068002109F0F9F9FFE744
:1025F0000898006808F0E4FFF0B1FFE704980130A4
:102600000490049848F24011C0F2BA11884212D3E3
:10261000FFE70898806F40F0100020F00200089952
:102620008867FFE70899002081F87400FFE7012020
:102630008DF82700EAE0DBE7039A08980168C8688C
:102640001043C860029A08980168486C10434864B7
:10265000C2E044F20000CEF2040001686FF31F31C3
:1026600001910068000C0090019840F255418842A9
:1026700017D0FFE7019840F27641884211D0FFE77A
:10268000019840F28141884206D0FFE7019840F26C
:102690008241884274D1FFE70098B0F5405F6FD364
:1026A000FFE70898FFF7ECF88DF817009DF8170082
:1026B000002864D1FFE7089800688068092161F369
:1026C0001B6008990968886008980068D0F8C800FD
:1026D000022161F3174008990968C1F8C8000898F9
:1026E0000168D1F8C40040F08070C1F8C4000898B7
:1026F000FFF764F88DF817000798B0F1011F0ED1AD
:10270000FFE70898006880684FF6C071C7F6FE7151
:10271000084000F58030089909688860FFE708984C
:102720000068806840F0004020F03F000899096888
:102730008860FFE70898006808F042FFF0B1FFE703
:10274000049801300490049848F24011C0F2BA1184
:10275000884212D3FFE70898806F40F0100020F005
:10276000020008998867FFE70899002081F8740043
:10277000FFE701208DF8270048E0DBE7FFE72AE0CC
:1027800008980068079909F02BF9FFE70898006896
:1027900008F016FFF0B1FFE70498013004900498A8
:1027A00048F24011C0F2BA11884212D3FFE70898EC
:1027B000806F40F0100020F0020008998867FFE762
:1027C0000899002081F87400FFE701208DF82700A8
:1027D0001CE0DBE7FFE7FFE70898806F40F00100AF
:1027E00020F002000899886705E00899886F40F09A
:1027F00010008867FFE7FFE70899002081F8740060
:10280000FFE79DF817008DF82700FFE79DF82700E8
:102810000AB080BD80B5CAB02690259100208DF801
:10282000930021902698006841F20001C4F20261F1
:10283000884209D0FFE72598C06810F5803F01D095
:10284000FFE700E0FFE710E026980069B0F1004FD5
:1028500008D0FFE7269800691021C8F200018842DD
:1028600001D1FFE700E0FFE7FFE7FFE7269890F8D8
:102870007400012805D1FFE702208DF89F0000F0C9
:1028800021BF2699012081F87400FFE7FFE7269811
:10289000006808F0BDFE002840F00087FFE726989A
:1028A000006841F20001C4F20261884200F00A842B
:1028B000FFE725980068000230B9FFE72598006817
:1028C000C0F384601D9015E02598006890FAA0F090
:1028D0002890289820B9FFE720208DF8A70005E070
:1028E0002898B0FA80F08DF8A700FFE79DF8A700C0
:1028F0001D90FFE71D9800F01F01012000FA01F272
:1029000026980168C8691043C8612698006825990F
:102910000A68496808F0CEFE2698006808F078FE3C
:1029200020902698006808F043FE1F902098002809
:1029300040F0C781FFE71F98002840F0C281FFE701
:1029400026980068259A1168926808F019FF259862
:10295000406926990968C96801F00C014908884056
:1029600023902598006904283DD0FFE72698006849
:1029700025990A680969239B08F0AAFF2698006830
:10298000259A1169D26908F0BDFF2598807E01283B
:1029900018D1FFE726980068259A1169527EB2FA8D
:1029A00082F25209520608F0D5FF26980068259A4F
:1029B0001169527E013AB2FA82F25209920608F087
:1029C000B5FF0FE0269800682599096900221C923E
:1029D00008F0C0FF1C9A269800682599096908F03C
:1029E000A5FFFFE76CE126980068002108F0D0FD04
:1029F000000248B9FFE726980068002108F0C8FDEA
:102A0000C0F384601B9018E026980068002108F04D
:102A1000BFFD90FAA0F02A902A9820B9FFE7202065
:102A20008DF8AF0005E02A98B0FA80F08DF8AF007D
:102A3000FFE79DF8AF001B90FFE71B981A902598C1
:102A40000068000230B9FFE725980068C0F3846091
:102A5000199015E02598006890FAA0F02C902C9819
:102A600020B9FFE720208DF8B70005E02C98B0FAD8
:102A700080F08DF8B700FFE79DF8B7001990FFE7E9
:102A80001A981999884209D1FFE726980068259974
:102A90000A680023194608F01BFFFFE72698006824
:102AA000012108F075FD000248B9FFE7269800688B
:102AB000012108F06DFDC0F38460189018E026989D
:102AC0000068012108F064FD90FAA0F02E902E9885
:102AD00020B9FFE720208DF8BF0005E02E98B0FA5E
:102AE00080F08DF8BF00FFE79DF8BF001890FFE76A
:102AF0001898179025980068000230B9FFE72598CC
:102B00000068C0F38460169015E02598006890FA7C
:102B1000A0F03090309820B9FFE720208DF8C70052
:102B200005E03098B0FA80F08DF8C700FFE79DF817
:102B3000C7001690FFE717981699884209D1FFE75A
:102B40002698006825990A680121002308F0C0FE34
:102B5000FFE726980068022108F01AFD000248B934
:102B6000FFE726980068022108F012FDC0F3846098
:102B7000159018E026980068022108F009FD90FAE7
:102B8000A0F03290329820B9FFE720208DF8CF00D6
:102B900005E03298B0FA80F08DF8CF00FFE79DF89D
:102BA000CF001590FFE71598149025980068000253
:102BB00030B9FFE725980068C0F38460139015E0F2
:102BC0002598006890FAA0F03490349820B9FFE777
:102BD00020208DF8D70005E03498B0FA80F08DF809
:102BE000D700FFE79DF8D7001390FFE714981399DB
:102BF000884209D1FFE72698006825990A680221D2
:102C0000002308F065FEFFE726980068032108F01E
:102C1000BFFC000248B9FFE726980068032108F0CE
:102C2000B7FCC0F38460129018E026980068032176
:102C300008F0AEFC90FAA0F03690369820B9FFE785
:102C400020208DF8DF0005E03698B0FA80F08DF88E
:102C5000DF00FFE79DF8DF001290FFE71298119068
:102C600025980068000230B9FFE725980068C0F396
:102C70008460109015E02598006890FAA0F03890D4
:102C8000389820B9FFE720208DF8E70005E0389854
:102C9000B0FA80F08DF8E700FFE79DF8E7001090AC
:102CA000FFE711981099884209D1FFE7269800683C
:102CB00025990A680321002308F00AFEFFE7FFE7D1
:102CC000FFE72698006808F093FC002840F0F9819F
:102CD000FFE726980068259A1168D26808F0A8FDD9
:102CE0002598C06810F5803F40F0D980FFE725980F
:102CF0000068000230B9FFE725980068C0F38460DF
:102D00000F9015E02598006890FAA0F03A903A9854
:102D100020B9FFE720208DF8EF0005E03A98B0FADF
:102D200080F08DF8EF00FFE79DF8EF000F90FFE7D0
:102D30000F98013000F01F00092852D8FFE72598AE
:102D40000068000230B9FFE725980068C0F384608E
:102D50000E9015E02598006890FAA0F03C903C9801
:102D600020B9FFE720208DF8F70005E03C98B0FA85
:102D700080F08DF8F700FFE79DF8F7000E90FFE771
:102D80000E98013000F01F0080060D902598006815
:102D9000000230B9FFE725980068C0F384600C900A
:102DA00015E02598006890FAA0F03E903E9820B972
:102DB000FFE720208DF8FF0005E03E98B0FA80F094
:102DC0008DF8FF00FFE79DF8FF000C90FFE70D98DE
:102DD0000C99013101F01F020121914008430B9031
:102DE00053E025980068000230B9FFE72598006895
:102DF000C0F384600A9015E02598006890FAA0F06E
:102E00004090409820B9FFE720208DF8070105E0A9
:102E10004098B0FA80F08DF80701FFE79DF80701B0
:102E20000A90FFE70A98013000F01F008006099021
:102E300025980068000230B9FFE725980068C0F3C4
:102E40008460089015E02598006890FAA0F0429000
:102E5000429820B9FFE720208DF80F0105E0429845
:102E6000B0FA80F08DF80F01FFE79DF80F01089090
:102E7000FFE709980899013101F01F0201219140F3
:102E8000084340F000700B90FFE70B981E902698C7
:102E900000681E99259A926808F072FCFFE7259851
:102EA000C0780006002840F10B81FFE726980168F2
:102EB00048F20002C4F20222069241F20830C4F243
:102EC00002600790914204BF48F20830C4F2022029
:102ED00008F056FB069A0146079822912699096840
:102EE000914204BF48F20830C4F2022048F208318F
:102EF000C4F20221884208D1FFE748F20000C4F280
:102F0000022008F075FB059007E041F20000C4F2D2
:102F1000026008F06DFB0590FFE70598002840F07F
:102F2000C580FFE7259800680021CCF6086188423B
:102F30004BD1FFE79DF88A000006002845D4FFE743
:102F40002698006848F20001C4F20221884209D0A4
:102F5000FFE72698006841F20001C4F2026188424E
:102F600032D1FFE72698016848F20002C4F202223B
:102F700041F20830C4F20260914204BF48F20830C6
:102F8000C4F20220229941F4000108F079FC40F2D9
:102F90001000C2F2000000684FEA901042F6635140
:102FA000C0F23E51A0FB01104FEA90114FF0020019
:102FB00000EB41002190FFE7219820B1FFE7219825
:102FC00001382190F8E7FFE76FE0259800680021BD
:102FD000CCF6042188422ED1FFE79DF88B00C00774
:102FE00048BBFFE72698006848F20001C4F20221BE
:102FF000884209D0FFE72698006841F20001C4F238
:103000000261884216D1FFE72698016848F2000263
:10301000C4F2022241F20830C4F20260914204BFBD
:1030200048F20830C4F20220229941F0807108F081
:1030300027FCFFE738E0259800680121C8F200016D
:1030400088422FD1FFE79DF88A004006002829D446
:10305000FFE72698006848F20001C4F20221884286
:1030600009D0FFE72698006841F20001C4F202612E
:10307000884216D1FFE72698016848F20002C4F2A0
:10308000022241F20830C4F20260914204BF48F2C9
:103090000830C4F20220229941F4800108F0F0FBCC
:1030A000FFE700E0FFE7FFE7FFE708E02699886F0A
:1030B00040F02000886701208DF89300FFE7FFE7CC
:1030C000FFE7EAE2259800681E9002F0E1F9B0F50A
:1030D000805F4DD1FFE72598006842F20001CBF2F6
:1030E0000061884205D1FFE70020CDF640201E9008
:1030F0003DE02598006844F20001CBF600218842AB
:1031000005D1FFE70020CDF680601E902EE02598C7
:10311000006841F20001CBF20021884205D1FFE7AF
:103120000120C8F200101E901FE0259800680021C1
:10313000CDF22061884205D1FFE70020CDF21020BA
:103140001E9011E0259800680021CDF22071884280
:1031500005D1FFE70020CDF220601E9003E0259806
:1031600000681E90FFE7FFE7FFE7FFE7FFE7FFE7E5
:1031700025984068022800F0B481FFE7269800698E
:10318000B0F1004F08D0FFE7269800691021C8F27F
:103190000001884206D1FFE7269800681E9908F0D2
:1031A0004BFA94E02698D0F888002599496801F0F8
:1031B0001F020F219140884304901E98000228B9F5
:1031C000FFE71E98C0F38460039014E01E9890FA05
:1031D000A0F04890489820B9FFE720208DF82701FB
:1031E00005E04898B0FA80F08DF82701FFE79DF8D8
:1031F00027010390FFE704980399259A526802F08B
:103200001F02914008432699C1F88800259841681B
:10321000012000EB91002699896A884256D8FFE781
:1032200002F036F9B0F5805F48D8FFE71E9800023B
:1032300028B9FFE71E98C0F38460029014E01E983E
:1032400090FAA0F04690469820B9FFE720208DF82C
:103250001F0105E04698B0FA80F08DF81F01FFE7E6
:103260009DF81F010290FFE70298142825D3FFE77D
:103270001E98000228B9FFE71E98C0F384600190F1
:1032800014E01E9890FAA0F04490449820B9FFE70B
:1032900020208DF8170105E04498B0FA80F08DF8F1
:1032A0001701FFE79DF817010190FFE70198A0F1D2
:1032B0000901012088401E90FFE7FFE7269800687B
:1032C000259949681E9A08F0F5F9FFE7FFE7269867
:1032D00000681E99259A926808F052FA2598C078DD
:1032E0000006002840F1FC80FFE72698016848F2BC
:1032F0000002C4F2022241F20830C4F2026091429C
:1033000004BF48F20830C4F2022008F039F92290D4
:103310002598006842F20001CBF20061884236D164
:10332000FFE79DF88A000006002830D4FFE72698C2
:10333000016848F20002C4F2022241F20830C4F2ED
:103340000260914204BF48F20830C4F20220229980
:1033500041F4000108F094FA40F21000C2F20000BB
:1033600000684FEA901042F66351C0F23E51A0FB54
:1033700001016FF0010000EA51102190FFE7219850
:1033800020B1FFE7219801382190F8E789E02598DE
:10339000006844F20001CBF6002188421BD1FFE710
:1033A0009DF88B00C007B0B9FFE72698016848F286
:1033B0000002C4F2022241F20830C4F202609142DB
:1033C00004BF48F20830C4F20220229941F0807113
:1033D00008F056FA64E0259800680121C8F200015F
:1033E00088421CD1FFE79DF88A004006002816D4C9
:1033F000FFE72698016848F20002C4F2022241F277
:103400000830C4F20260914204BF48F20830C4F2AE
:103410000220229941F4800108F032FA3FE0259819
:10342000006841F20001CBF20021884235D1FFE76C
:103430009DF88A00400600282FD4FFE726980068F0
:1034400041F20001C4F20261884225D1FFE72698CB
:10345000016848F20002C4F2022241F20830C4F2CC
:103460000260914204BF48F20830C4F2022022995F
:1034700041F4800108F004FA02F00AF8B0F5805F28
:1034800009D8FFE726980168D1F8D00040F0010084
:10349000C1F8D000FFE7FFE700E0FFE7FFE7FFE745
:1034A000FFE701F0F5FFB0F5005F18D1FFE72598C1
:1034B00000680021CDF2207188420FD1FFE79DF80E
:1034C0008A004006002809D4FFE726980168D1F851
:1034D000D00040F00100C1F8D000FFE7FFE7FFE7B0
:1034E000DAE026980069B0F1004F08D0FFE726988F
:1034F00000691021C8F20001884206D1FFE7269832
:1035000000681E9908F0C6F8FFE72598C078000605
:10351000002840F1C080FFE72698016848F20002C9
:10352000C4F2022241F20830C4F20260914204BFA8
:1035300048F20830C4F2022008F022F822902598C0
:10354000006840F20001CCF60861884216D1FFE71E
:103550002698016848F20002C4F2022241F20830C3
:10356000C4F20260914204BF48F20830C4F2022063
:10357000229921F4000108F083F96DE02598006894
:103580000021CCF60421884216D1FFE72698016875
:1035900048F20002C4F2022241F20830C4F2026092
:1035A000914204BF48F20830C4F20220229921F06F
:1035B000807108F065F94EE0259800680121C8F295
:1035C0000001884216D1FFE72698016848F2000200
:1035D000C4F2022241F20830C4F20260914204BFF8
:1035E00048F20830C4F20220229921F4800108F048
:1035F00047F92FE02598006841F20001CBF2002145
:10360000884225D1FFE72698016848F20002C4F2FB
:10361000022241F20830C4F20260914204BF48F233
:103620000830C4F20220229921F4800108F028F920
:1036300001F02EFFB0F5805F09D8FFE726980168FA
:10364000D1F8D00040F00100C1F8D000FFE700E061
:10365000FFE7FFE7FFE7FFE701F01AFFB0F5005FC4
:1036600018D1FFE7259800680021CDF2207188422B
:103670000FD1FFE79DF88A004006002809D4FFE734
:1036800026980168D1F8D00040F00100C1F8D000C0
:10369000FFE7FFE7FFE7FFE7FFE708E02699886F0E
:1036A00040F02000886701208DF89300FFE7FFE7D6
:1036B0002699002081F87400FFE79DF893008DF8AB
:1036C0009F00FFE79DF89F004AB080BD81B0009049
:1036D0000098006848F20001C4F20221884207D134
:1036E000FFE740F23011C2F2000101200860FFE75D
:1036F00001B0704781B0009001B0704781B0009078
:1037000001B0704780B590B00E9000208DF8370062
:103710000C900B900E9820B9FFE701208DF83F0028
:103720000BE30E98006841F20001C4F20261884286
:1037300001D0FFE700E0FFE70E980069C8B1FFE79E
:103740000E98006841F20001C4F20261884208D07C
:10375000FFE70E9890F82C00012801D1FFE7FFE762
:1037600006E00E980069012801D1FFE7FFE7FFE7B7
:10377000FFE70E98806F50B9FFE70E9800F0E2FA6D
:103780000E990020C8670E9981F87400FFE70E9823
:10379000006807F01DFF28B1FFE70E98006807F0EA
:1037A000C5FEFFE70E98006807F02AFFF0B9FFE7B3
:1037B0000E98006807F0D4FE40F21000C2F200003C
:1037C0000068800942F66351C0F23E51A0FB01102F
:1037D0008109022000EB41000990FFE7099820B120
:1037E000FFE7099801380990F8E7FFE70E980068AD
:1037F00007F006FF70B9FFE70E99886F40F01000E0
:1038000088670E99C86F40F00100C86701208DF8E5
:103810003700FFE70E98006807F0FAFE0A900E984E
:10382000806FC006002800F17A82FFE70A9800281E
:1038300040F07582FFE70E98806F40F0020020F4A0
:1038400080700E9988670E98006807F0D1FE0028F6
:103850005AD1FFE70E98006841F20001C4F20261FC
:1038600088423FD0FFE70E98016848F20002C4F298
:10387000022241F20830C4F20260914204BF48F2D1
:103880000830C4F2022048F20831C4F20221884212
:1038900008D1FFE748F20000C4F2022007F0A8FEBA
:1038A000069007E041F20000C4F2026007F0A0FEBB
:1038B0000690FFE70698A0B9FFE70E9802684168F6
:1038C00048F20003C4F2022341F20830C4F202605D
:1038D0009A4204BF48F20830C4F2022007F0C2FF47
:1038E000FFE710E00E990868896808F047F841F290
:1038F0000831C4F2026108680E9A5268920C62F3B1
:1039000095400860FFE7FFE70E98006841F200016C
:10391000C4F2026188420ED0FFE70E9991F824208C
:10392000486C40EA42308A68104391F82C1040EA13
:1039300001400C903DE00E98017F890390F824200F
:1039400041EA4231436C01F58052002B18BF114609
:10395000426911430591C07C0006002806D5FFE7A7
:103960000E98006920F00040049003E04FF400102E
:103970000490FFE705980499084303900E980068A7
:1039800048F20001C4F20221884205D1FFE70E98F7
:1039900090F84000029005E00E9890F8400040003A
:1039A0000290FFE70398029901430C9808430C909A
:1039B000FFE70E9890F82C0001282BD1FFE70E9816
:1039C000006841F20001C4F2026188420BD0FFE7B7
:1039D0000E98016B0020CFF6FE7000EB41410C9871
:1039E00008430C9015E00E9890F8240028B9FFE7E2
:1039F0000C9840F480300C900AE00E99886F40F0EB
:103A0000200088670E99C86F40F00100C867FFE783
:103A1000FFE7FFE70E98006841F20001C4F202617F
:103A200088421CD0FFE70E98406B50B1FFE70E991B
:103A3000486B896B00F4787001430C9808430C9034
:103A4000FFE70E980068C0684CF21301CFF6F071E2
:103A500008400C9908430E990968C86031E00E9837
:103A6000406B50B1FFE70E99486B896B00F4E07032
:103A700001430C9808430C90FFE70E980068C0685B
:103A800048F20D01CFF6DE7108400C9908430E99FB
:103A90000968C8600E98006A38B1FFE70E9801689F
:103AA000026A486C10434864FFE70E98C06E38B154
:103AB000FFE70E980168C26E486C10434864FFE748
:103AC000FFE70E98006841F20001C4F202618842EB
:103AD00000F0A380FFE70E98006807F099FD0890BA
:103AE0000E98006807F064FD07900898002873D1CD
:103AF000FFE7079800286FD1FFE70E98017F890341
:103B00000191006848F20001C4F20221884204D108
:103B1000FFE70E98C06B009004E00E98C06B400069
:103B20000090FFE70198009908430C900E980068F8
:103B3000C06844F2030188430C9908430E99096850
:103B4000C8600E98C06830B1FFE70E990868C96870
:103B500007F0A4FEFFE70E9890F85400012829D141
:103B6000FFE70E98406B20B1FFE70E98806B08B915
:103B7000FFE7FFE70E98006800694FF61E01CFF6D9
:103B8000004100EA01020E9B1968D3F858E0D86D95
:103B9000D3F860C040EA0E4040EA0C00D3F864C09D
:103BA00040EA0C009B6E40EA9300104340F0010095
:103BB000086106E00E980168086920F001000861BC
:103BC000FFE70E980068006920F070400E9A1168B7
:103BD000126D10430861FFE70E98006901280CD1AF
:103BE000FFE70E980068006B20F00F000E9A116836
:103BF000926A013A1043086306E00E980168086B68
:103C000020F00F000863FFE70E98806F40F001007E
:103C100020F002000E99886780E00E9890F854001A
:103C2000012810D1FFE70E99886DCB6D0A6E896E61
:103C30001843104301430B9808430B900B9840F036
:103C400001000B90FFE70E98006800694FF60241F3
:103C5000CFF2FF7108400B9908430E99096808617B
:103C60000E9908688A6C002107F0A6FE0E99086874
:103C7000CA6C6FF0FB0107F09FFE0E98006938B91F
:103C8000FFE70E980168886A60F00F0088621BE009
:103C90000E980069B0F5001F14D1FFE70E98006878
:103CA000806A0E980168836AD0F888206FF003005C
:103CB00000EB830000F01C036FF00F0098401043EE
:103CC000886200E0FFE7FFE70E980068C0684FF6E3
:103CD000F371C8F23F3108400C9988420CD1FFE7DC
:103CE0000E990020C8670E98806F40F0010020F008
:103CF00002000E99886710E00E98806F40F0100067
:103D000020F002000E9988670E99C86F40F00100FC
:103D1000C86701208DF83700FFE7FFE708E00E993C
:103D2000886F40F01000886701208DF83700FFE7AA
:103D30009DF837008DF83F00FFE79DF83F0010B079
:103D400080BD000080B5D8B05790002056905590A7
:103D500054905390529037A86C21FCF706FC04A8AD
:103D6000C821FCF702FC5798006848F20001C4F231
:103D70000221884240F0B880FFE7002005904FF410
:103D8000004004904FF480402E9004A803F048FEB9
:103D900018B1FFE7FEF7CAFBFFE7FFE740F68C40EC
:103DA000C4F20260016841F480610160006800F4BF
:103DB000806003900398FFE7FFE740F68C40C4F271
:103DC0000260016841F001010160006800F001003B
:103DD00002900298FFE77020529003205390002039
:103DE000019054900020C4F2022052A901F036F94B
:103DF000019821213791389039903A903B904FF4B7
:103E000000213C9101213D914FF480323E9240913E
:103E100041914FF040214291439044904890459009
:103E2000469040F2A401C2F2000137A800F074F9F4
:103E300018B1FFE7FEF77AFBFFE740F28C00C2F211
:103E4000000040F2A402C2F20002002100F06EFB6A
:103E500018B1FFE7FEF76AFBFFE740F28C00C2F201
:103E6000000000F0FBFC18B1FFE7FEF75FFBFFE787
:103E700040F2D010C2F200005021C4F202010160F1
:103E800000218163C163016441648121816400F088
:103E90008BF918B1FFE7FEF749FBFFE740F2D010BE
:103EA000C2F2000040F28C01C2F2000100F00CFCF2
:103EB00018B1FFE7FEF73AFBFFE7FFE7579840F23C
:103EC000D011C2F2000101675798C865FFE740F2C0
:103ED000D010C2F20000102100F078FE18B1FFE708
:103EE000FEF724FBFFE7FFE758B080BD80B5A2B026
:103EF00020901F911E922098006807F089FB0028EF
:103F000040F0FD80FFE7FFE7209890F8740001285B
:103F100004D1FFE702208DF88700F9E02099012005
:103F200081F87400FFE7FFE72098FDF7A9FC8DF802
:103F300077009DF87700002840F0D980FFE72098AF
:103F4000806F40F4807040F6016188432099886753
:103F50002098006841F20001C4F20261884211D049
:103F6000FFE72098806FC004002806D5FFE720995E
:103F7000C86F20F00600C86703E020990020C867DA
:103F8000FFE703E020990020C867FFE72098016F52
:103F900041F2A560C0F6000008662098016F41F26A
:103FA000A570C0F6000048662098016F41F2797054
:103FB000C0F600008866209801681C200860FFE7B2
:103FC0002099002081F87400FFE720980168486874
:103FD00040F0100048602098006841F20001C4F2EF
:103FE0000261884207D1FFE720980168C86840F065
:103FF0000100C860FFE72098006F90F850000006AD
:1040000000284CD5FFE72098006F406F002841D072
:10401000FFE72098006F406F0068D8B3FFE7209853
:10402000006F406F016801A800F0A4F820B1FFE71D
:1040300001208DF887006BE00798022804D1FFE784
:104040001E9880001C900BE00798012804D1FFE720
:104050001E9840001C9002E01E981C90FFE7FFE7AE
:104060001C982099096F496F096888602099086831
:10407000096F4030496F0968C8601F982099096F1F
:10408000496F096808612098006F00F04DFC8DF8B9
:10409000770003E001208DF87700FFE722E0209809
:1040A000006F8069022804D1FFE71E9880001C90F1
:1040B0000DE02098006F8069012804D1FFE71E9869
:1040C00040001C9002E01E981C90FFE7FFE720983C
:1040D0000168006F40311F9A1C9B00F033FF8DF880
:1040E0007700FFE72098006807F03CFB06E0FFE759
:1040F0002099002081F87400FFE7FFE703E0022029
:104100008DF87700FFE79DF877008DF88700FFE7CF
:104110009DF8870022B080BD80B584B002900191E7
:10412000029818B1FFE7019820B9FFE701208DF848
:104130000F001AE0029800788006002801D5FFE7FA
:10414000FFE70298406C08B1FFE7FFE702980078AC
:104150008007002801D5FFE7FFE702980199FDF7E6
:1041600003FC00208DF80F00FFE79DF80F0004B05E
:1041700080BD000080B584B002900191029818B112
:10418000FFE7019820B9FFE701208DF80F0007E055
:1041900002980199FDF794FE00208DF80F00FFE7CB
:1041A0009DF80F0004B080BD80B584B0029001F08E
:1041B00077F90190029820B9FFE701208DF80F00F0
:1041C000AFE10298016801205022C4F2020291423C
:1041D000009000F06781FFE70298016801205022FB
:1041E000C5F202029142009000F05C81FFE7029864
:1041F00001680120D022C4F202029142009000F036
:104200005181FFE7029801680120D022C5F2020225
:104210009142009000F04681FFE70298016801207A
:1042200040F25012C4F202029142009000F03A8132
:10423000FFE702980168012040F25012C5F2020225
:104240009142009000F02E81FFE702980168012062
:1042500040F2D012C4F202029142009000F022819A
:10426000FFE702980168012040F2D012C5F2020275
:104270009142009000F01681FFE70298016801204A
:1042800040F25022C4F202029142009000F00A81F2
:10429000FFE702980168012040F25022C5F20202B5
:1042A0009142009000F0FE80FFE702980168012033
:1042B00040F2D022C4F202029142009000F0F2805B
:1042C000FFE702980168012040F2D022C5F2020205
:1042D0009142009000F0E680FFE70298016801201B
:1042E00040F25032C4F202029142009000F0DA80B3
:1042F000FFE702980168012040F25032C5F2020245
:104300009142009000F0CE80FFE702980168012002
:1043100040F2D032C4F202029142009000F0C2801A
:10432000FFE702980168012040F2D032C5F2020294
:104330009142009000F0B680FFE7029801680120EA
:1043400040F25042C4F202029142009000F0AA8072
:10435000FFE702980168012040F25042C5F20202D4
:104360009142009000F09E80FFE7029801680120D2
:1043700040F2D042C4F202029142009000F09280DA
:10438000FFE702980168012040F2D042C5F2020224
:104390009142009000F08680FFE7029801680120BA
:1043A00040F25052C4F20202914200907AD0FFE7EC
:1043B00002980168012040F25052C5F20202914277
:1043C00000906FD0FFE702980168012040F2D052C0
:1043D000C4F202029142009064D0FFE702980168A3
:1043E000012040F2D052C5F202029142009059D011
:1043F000FFE702980168012040F25062C4F2020215
:10440000914200904ED0FFE702980168012040F2EF
:104410005062C5F202029142009043D0FFE7029839
:104420000168012040F2D062C4F202029142009081
:1044300038D0FFE702980168012040F2D062C5F24F
:104440000202914200902DD0FFE7029801680120FE
:1044500040F25072C4F202029142009022D0FFE773
:1044600002980168012040F25072C5F202029142A6
:10447000009017D0FFE702980168012040F2D07247
:10448000C4F20202914200900CD0FFE7029800684B
:104490004FF63001CAF6FD710844B0FA80F04009C9
:1044A0000090FFE70098C00708B1FFE7FFE7FFE7CC
:1044B0000299002081F84C00FFE70299022081F860
:1044C000540002980168486940F006004861FFE71F
:1044D000029800684069C00798B1FFE700F0E0FF6C
:1044E0000199401A06280BD3FFE70299102088652E
:1044F0000299032081F8540001208DF80F0010E08C
:10450000E6E70298FDF7E8FD0299886C08650299D4
:1045100000208865029A012182F854108DF80F005E
:10452000FFE79DF80F0004B080BD000080B58CB09F
:104530000A90099108920A9818B1FFE7089820B9E3
:10454000FFE701208DF82F00B9E00A9840690128A3
:1045500007D1FFE70A990420086101208DF82F0098
:10456000ADE00A9800680999089AFDF75DFB38B13B
:10457000FFE70A990520086101208DF82F009EE0D1
:104580000A9800680999089AFDF782FB38B1FFE79D
:104590000A990420086101208DF82F008FE00A9904
:1045A000022008730A9900200861089807A906AA42
:1045B000FDF756FC0A980068E0B9FFE7099838B99A
:1045C000FFE708980A9908600A990120886010E0BE
:1045D00009980A99086008984FF6FC7108400799F5
:1045E00008430999069A41F822000A990220886036
:1045F000FFE75BE0099878B9FFE70A9800684FF693
:10460000FC710840079908430899069A41F822006E
:1046100008980A99086044E0069801900A98099958
:1046200001AAFDF779FBA0BBFFE703980A99896807
:1046300088421BD1FFE70A98406860B1FFE70A98FB
:1046400040684FF6FC710840079908430899069A9C
:1046500041F82200FFE708984FF6FC7108400799DF
:1046600008430999069A41F8220011E00998069A30
:1046700050F82200089941F8220008984FF6FC7182
:104680000840079908430999069A41F82200FFE774
:1046900006E00A990620086101208DF82F000EE03F
:1046A000FFE70A99886801308860FFE70A990020CF
:1046B00008610A9A012111738DF82F00FFE79DF818
:1046C0002F000CB080BD000085B0039002910398CC
:1046D00018B1FFE7029820B9FFE701208DF8130019
:1046E000B7E0039890F854008DF80700039890F80D
:1046F0005400022805D0FFE79DF8070005280DD1DA
:10470000FFE7039940208865FFE70399002081F8BF
:104710004C00FFE701208DF813009AE00298007B1F
:10472000022806D1FFE70299012008618DF81300E5
:104730008FE003980168012040F25062C4F2020247
:10474000914200904ED0FFE703980168012040F2AB
:104750005062C5F202029142009043D0FFE70398F5
:104760000168012040F2D062C4F20202914200903E
:1047700038D0FFE703980168012040F2D062C5F20B
:104780000202914200902DD0FFE7039801680120BA
:1047900040F25072C4F202029142009022D0FFE730
:1047A00003980168012040F25072C5F20202914262
:1047B000009017D0FFE703980168012040F2D07203
:1047C000C4F20202914200900CD0FFE70398006807
:1047D0004FF63001CAF6FD710844B0FA80F0400986
:1047E0000090FFE70098C00778B9FFE702980068DB
:1047F00090F820008007002807D5FFE702990320E2
:10480000086101208DF8130023E00398006D8128D2
:104810000CD1FFE70298406838B9FFE702990420FD
:10482000086101208DF8130013E00BE00298406846
:1048300038B1FFE702990420086101208DF81300C8
:1048400007E0FFE702980399486700208DF81300FE
:10485000FFE79DF8130005B07047000080B58AB0EF
:104860000890089820B9FFE701208DF8270056E04E
:104870000898006838B9FFE708990220086101200C
:104880008DF827004BE00898406888B1FFE708984A
:1048900001684068884204D1FFE700208DF82700B6
:1048A0003DE008990420086101208DF8270036E0DA
:1048B00008984069012807D1FFE70899042008619A
:1048C00001208DF827002AE0089902200873089932
:1048D0000020009008610898006807A906AAFDF763
:1048E000BFFA009906980190089801AAFDF714FAFA
:1048F0000098089909684FF6FC721140079A114315
:10490000049A069B42F82310089A1168516008998E
:104910000861089A012111738DF82700FFE79DF8BF
:1049200027000AB080BD000080B586B004900498CE
:1049300020B1FFE70498406F20B9FFE701208DF810
:10494000170088E0049890F854008DF80F00049840
:104950000068406900F4803002909DF80F00012843
:1049600009D0FFE79DF80F00022863D1FFE7029806
:1049700000285FD0FFE7049890F85400012852D136
:10498000FFE7FFE7049890F84C00012804D1FFE707
:1049900002208DF817005EE00499012081F84C0098
:1049A000FFE7FFE70499022081F854000499496F5A
:1049B00008730499002088650499496F0861049878
:1049C0000168486940F4BA4048610498406E38B1C3
:1049D000FFE704980168486940F400704861FFE708
:1049E0000498006F38B1FFE704980168486940F403
:1049F00000504861FFE70498406F006801A9002259
:104A0000FDF72EFA04980168406F408800040860A2
:104A100004980168406F00684FF6FC721040019ADC
:104A20001043C867FFE704980168486940F0010037
:104A300048610CE0049940208865FFE70499002054
:104A400081F84C00FFE701208DF8170003E00020FB
:104A50008DF81700FFE79DF8170006B080BD000035
:104A600080B584B0029000F01BFD0190029820B93F
:104A7000FFE701208DF80F0079E0029890F85400CC
:104A800002280DD0FFE7029920208865FFE70299F0
:104A9000002081F84C00FFE701208DF80F0066E050
:104AA00002980168486940F00400486102990520B5
:104AB00081F85400FFE7029800680069800400282C
:104AC00027D4FFE700F0ECFC0199401A06281FD319
:104AD000FFE70299886D40F0100088650299032075
:104AE00081F85400029890F850000006002805D57F
:104AF000FFE70298416F01200873FFE7FFE7029983
:104B0000002081F84C00FFE701208DF80F002EE017
:104B1000D1E702980168486940F0020048610299B3
:104B2000042081F85400029801684FF4FE40C860E8
:104B30000299012081F85400029890F85000000674
:104B4000002809D5FFE70298416F012008730298F9
:104B5000016800208864FFE7FFE70299002081F8E0
:104B60004C00FFE7FFE700208DF80F00FFE79DF8FE
:104B70000F0004B080BD000082B00090009820B902
:104B8000FFE701208DF807001CE0009890F8540022
:104B9000022807D0FFE700992020886501208DF8C2
:104BA00007000FE00099042081F854000098016884
:104BB000486942F2040210434861FFE700208DF883
:104BC0000700FFE79DF8070002B0704785B003902B
:104BD0000291039820B9FFE701208DF813002AE025
:104BE0000398006840F6FF718843019003980068BD
:104BF0005038C0F3C4110120884000909DF808008F
:104C0000C006002813D5FFE7029800F01100112814
:104C100006D1FFE7009A019948681043486005E013
:104C2000009A0199486890434860FFE7FFE7002039
:104C30008DF81300FFE79DF8130005B070470000E2
:104C400080B584B003900398006840F6FF718843F4
:104C50000290039800685038C0F3C41101208840C6
:104C600001900298C068019908400090009808B926
:104C7000FFE765E10398006800694005002813D547
:104C8000FFE7039800684069400500280BD5FFE75F
:104C9000039801684FF48060C8600399886D40F004
:104CA00001008865FFE7FFE70398006800690005D9
:104CB000002813D5FFE70398006840690005002825
:104CC0000BD5FFE7039801684FF40060C8600399B3
:104CD000886D40F002008865FFE7FFE703980068F1
:104CE0000069C004002813D5FFE7039800684069F5
:104CF000C00400280BD5FFE7039801684FF48050EB
:104D0000C8600399886D40F004008865FFE7FFE7FD
:104D10000398006800694004002813D5FFE7039852
:104D200000684069400400280BD5FFE7039801683C
:104D30004FF48040C8600399886D40F00800886592
:104D4000FFE7FFE70398006800698005002816D593
:104D5000FFE7039800684069800500280ED5FFE74B
:104D6000039801684FF40070C8600398406E20B14A
:104D7000FFE70398416E8847FFE7FFE7FFE70398E7
:104D800000680069800400285CD5FFE7039800688C
:104D900040698004002854D5FFE7039801684FF468
:104DA0000050C860039890F8540004283BD1FFE7F6
:104DB00003980168486920F400504861039801682D
:104DC000486940F002004861039800684069C007E4
:104DD00028B1FFE70399032081F8540004E0039908
:104DE000012081F85400FFE7039890F85000000676
:104DF000002809D5FFE70398416F01200873039845
:104E0000016800208864FFE7FFE70399002081F82C
:104E10004C00FFE70398C06E20B1FFE70398C16E16
:104E20008847FFE78CE00399052081F85400039838
:104E3000006F20B1FFE70398016F8847FFE7FFE7A6
:104E4000FFE7FFE7039800680069C005002842D526
:104E5000FFE7039800684069C00500283AD5FFE7DE
:104E6000039890F850000006002814D5FFE7039837
:104E70000068C06F70B9FFE703980068806C40B9A4
:104E8000FFE70399012081F854000399496F0873E3
:104E9000FFE7FFE70AE003980068806C28B9FFE7A6
:104EA0000399012081F85400FFE7FFE703980168A8
:104EB0004FF44070C860FFE70399002081F84C0070
:104EC000FFE70398006E20B1FFE70398016E884763
:104ED000FFE7FFE7FFE70398806D88B3FFE70398DC
:104EE0000168486940F00200486103980068406921
:104EF000C00728B1FFE70399032081F8540004E0BC
:104F00000399012081F85400FFE7039890F85000BE
:104F10000006002805D5FFE70398416F01200873BC
:104F2000FFE7FFE70399002081F84C00FFE70398B3
:104F3000806E20B1FFE70398816E8847FFE7FFE7A7
:104F400004B080BD80B586B00490039102920193B5
:104F5000049820B9FFE701208DF8170057E0FFE71C
:104F6000049890F84C00012804D1FFE702208DF846
:104F700017004CE00499012081F84C00FFE7FFE79F
:104F8000049890F85400012830D1FFE704990220DA
:104F900081F8540004990020886504980399029AC6
:104FA000019BFDF7A1FA04980168486940F4BA40F2
:104FB00048610498406E38B1FFE704980168486979
:104FC00040F400704861FFE70498006F38B1FFE7D4
:104FD00004980168486940F400504861FFE704986C
:104FE0000168486940F0010048610CE004994020E4
:104FF0008865FFE70499002081F84C00FFE7012055
:105000008DF8170003E000208DF81700FFE79DF8EA
:10501000170006B080BD000080B584B0039000F09A
:105020003FFA0290039801900198013048B1FFE7E0
:1050300040F21C00C2F2000001780198084401907F
:10504000FFE7FFE700F02CFA0299401A0199884225
:1050500001D2FFE7F6E704B080BD000087B00690FC
:1050600005910020019006980090FFE705980068E0
:105070000199C840002800F0DB81FFE7059800682F
:10508000019A0121914008400390019802900398F1
:10509000002800F0C981FFE706980021C4F20261F0
:1050A00088425FD1FFE706980068049001990120CB
:1050B00000FA01F10498884304900598406800F0D4
:1050C0000100019900FA01F1049808430490049842
:1050D00006990860019940F6A020C0F6010050F83A
:1050E00031100091019900EBC100406802900098D6
:1050F00002996FF0030202EA51010844006A049029
:10510000029800F0070081000F2000FA01F10498D6
:1051100088430490029800F0070081000B2000FAF9
:1051200001F104980843049004980099029B02EA54
:1051300053021144086200980068049002984100EC
:10514000032000FA01F1049888430490029841007A
:10515000022000FA01F10498084304900498009991
:10516000086065E005984068022805D0FFE70598CB
:105170004068122841D1FFE7069801996FF00302B9
:1051800002EA51010844006A0490019800F0070007
:1051900081000F2000FA01F10498884304900598DB
:1051A000006900F00F00019901F00701890000FA81
:1051B00001F104980843049004980699019B02EABF
:1051C000530211440862009800680490029841005C
:1051D000032000FA01F10498884304900598406880
:1051E00000F003000299490000FA01F10498084315
:1051F000049004980099086019E0009800680490F1
:1052000002984100032000FA01F1049888430490B9
:105210000598406800F003000299490000FA01F186
:10522000049808430490049800990860FFE7FFE79A
:105230000598406801280FD0FFE7059840680228CC
:105240000AD0FFE705984068112805D0FFE70598C8
:10525000406812282FD1FFE70098806804900298D8
:105260004100032000FA01F1049888430490059856
:10527000C0680299490000FA01F1049808430490BB
:105280000498009988600098406804900299012071
:1052900000FA01F104988843049005984068C0F32F
:1052A0000010029900FA01F1049808430490049850
:1052B00000994860FFE705984068032818D0FFE789
:1052C0000098C068049002984100032000FA01F1A0
:1052D000049888430490059880680299490000FA70
:1052E00001F104980843049004980099C860FFE70E
:1052F0000598C079C006002840F19580FFE7019825
:1053000020F0030042F26002C4F20262805804906E
:10531000019800F00300C1000F2000FA01F1049889
:105320008843049006984FF60041CBF6FD510840A3
:10533000800A019901F00301C90000FA01F1049803
:10534000084304900498019921F00301885042F227
:105350000000C4F202600068049003990498884336
:10536000049005988079C006002805D5FFE70399C9
:10537000049808430490FFE7049842F20001C4F245
:105380000261086042F20400C4F202600068049006
:105390000399049888430490059880798006002832
:1053A00005D5FFE70399049808430490FFE70498A4
:1053B00042F20401C4F20261086042F28400C4F2C5
:1053C000026000680490039904988843049005984B
:1053D00080798007002805D5FFE7039904980843E2
:1053E0000490FFE7049842F28401C4F2026108606D
:1053F00042F28000C4F202600068049003990498AD
:105400008843049005988079C00728B1FFE7039985
:10541000049808430490FFE7049842F28001C4F224
:1054200002610860FFE7FFE70198013001901DE687
:1054300007B0704782B00190ADF802100198006982
:10544000BDF80210084204D0FFE701208DF80100EA
:1054500003E000208DF80100FFE79DF8010002B095
:105460007047000082B00190ADF802108DF8012065
:105470009DF8010028B1FFE7BDF80200019988619D
:1054800004E0BDF8020001998862FFE702B07047AE
:1054900044F20000CEF204000068000C70470000E7
:1054A00040F23840C2F200000068704782B00190BC
:1054B00000208DF8030040F20040C4F203000068B1
:1054C000C00720B1FFE701208DF803000AE040F299
:1054D0000041C4F20301086820F00400019A10435F
:1054E0000860FFE79DF8030002B0704780B582B006
:1054F00000208DF8070040F20C41C4F203010220A5
:10550000086040F20041C4F20301086820F0010085
:105510000860FFF7C5FF0090FFE740F20040C4F2CB
:1055200003000068C007A8B1FFE7FFF7B9FF0099C3
:10553000401A02280DD3FFE740F20040C4F20300F6
:105540000068C00720B1FFE703208DF8070001E0E5
:10555000FFE7E2E79DF8070002B080BD40F200419E
:10556000C4F20301086840F00100086000207047A1
:1055700085B00490039100208DF80B0040F20040AC
:10558000C4F203000068C00720B1FFE701208DF8D6
:105590000B0037E0049940F22040C4F2030000EB16
:1055A00081000190019800680004002804D5FFE7FD
:1055B00001208DF80B0024E003980168806801F059
:1055C000FF51404200EA51500090039948688968B1
:1055D000400949426FF3DF2100EA01410098084386
:1055E000009003998A68C868096940EA422001432B
:1055F000009808430090009840F40040019908602A
:10560000FFE7FFE79DF80B0005B0704740F21C0074
:10561000C2F20000027840F23841C2F2000108688C
:10562000104408607047000080B582B042F200016B
:10563000C4F20201086840F480700860032000F0A2
:10564000A3F803F075F940F62041C4F2026109683D
:1056500001F00F0240F68821C0F60101895CC840C4
:1056600040F21001C2F200010860002000F010F8C2
:1056700020B1FFE701208DF8070005E000F04CF8AD
:1056800000208DF80700FFE79DF8070002B080BDFD
:1056900080B582B0009040F21C00C2F20000007899
:1056A00020B9FFE701208DF8070030E040F210003C
:1056B000C2F20000006840F21C01C2F200010A7848
:1056C0004FF47A71B1FBF2F1B0FBF1F004F0D2FAD1
:1056D00020B1FFE701208DF8070018E000980F289F
:1056E0000DD8FFE700994FF0FF30002200F034F8AA
:1056F000009840F22001C2F20001086003E001209E
:105700008DF8070003E000208DF80700FFE79DF803
:10571000070002B080BD000080B582B0FFE740F610
:105720009440C4F20260016841F004010160006825
:1057300000F0040001900198FFE7052000F024F834
:1057400002B080BD80B582B08DF807009DF90700DA
:1057500009F05AF902B080BD80B586B08DF8170007
:105760000491039209F068F902909DF917000190E5
:1057700002980499039A06F0F1FC0146019809F099
:1057800063F906B080BD000080B582B00190019839
:1057900009F07CF902B080BD86B0049040F63C0070
:1057A000C4F20260006800F440300290029804994C
:1057B000884212D1FFE70498B0F1011F09D3FFE737
:1057C00040F60C01C4F20261086840F480200860D1
:1057D000FFE700208DF8170089E00498B0F1011F61
:1057E0000DD3FFE740F60C01C4F20261086820F413
:1057F000E0220498104340F4802008600AE040F65C
:105800000C01C4F20261086820F4E020049A1043FD
:105810000860FFE740F21000C2F20000006844F6A2
:10582000D351C1F26201A0FB01208009322200FBAA
:1058300002F0A0FB0101012000EB91100390FFE7B3
:1058400040F60C00C4F2026001680020090400293F
:10585000019006D4FFE70398002818BF01200190AB
:10586000FFE70198C00720B1FFE7039801380390D4
:10587000E6E7039880B3FFE740F21000C2F20000B1
:10588000006844F6D351C1F26201A0FB01208009F7
:10589000322200FB02F0A0FB0101012000EB91107D
:1058A0000390FFE740F63C00C4F20260016800206C
:1058B00009040029009006D4FFE70398002818BFC8
:1058C00001200090FFE70098C00720B1FFE7039890
:1058D00001380390E6E7FFE7039820B9FFE70320CC
:1058E0008DF8170003E000208DF81700FFE79DF802
:1058F000170006B07047000040F62C01C4F20261A8
:10590000086840F0010008607047000040F6100190
:10591000C4F20261086840F08040086070470000EF
:1059200040F61001C4F20261086840F000500860BF
:105930007047000040F63C00C4F20260006800F4CA
:10594000403070478AB0099040F63440C4F202609B
:1059500000686FF35F20069040F62840C4F20260B2
:10596000016801F003010891016801F470620121EE
:1059700001EB122107910068C0F300100590059813
:1059800040F63841C4F20261096889B2C90800FBD7
:1059900001F000EE100AB8EE400A8DED040A0798F7
:1059A000002800F04F81FFE70898029001282CD0D2
:1059B000FFE70298022804D0FFE70298032867D087
:1059C0008AE09DED070AB8EE401A9FEDA30A80EE2B
:1059D000010A40F63440C4F2026000686FF35F20B1
:1059E00001EE100AB8EE411A9DED042A9FED9B3A94
:1059F00082EE032A31EE021AB7EE002A31EE021AC5
:105A000020EE010A8DED030AA9E040F60840C4F239
:105A1000026000680002002809D5FFE740F6084050
:105A2000C4F20260006800F07040019009E040F6A6
:105A3000F440C4F20260006800F470400004019079
:105A4000FFE70198010F40F62030C0F6010000EB9F
:105A5000810090ED000AB8EE400A9DED071AB8EEFD
:105A6000411A80EE010A9DED061AB8EE411A9DED2D
:105A7000042A9FED7A3A82EE032A31EE021AB7EE3B
:105A8000002A31EE021A20EE010A8DED030A66E0CB
:105A90009DED070AB8EE401A9FED6F0A80EE010AED
:105AA00040F63440C4F2026000686FF35F2001EEFC
:105AB000100AB8EE411A9DED042A9FED683A82EE75
:105AC000032A31EE021AB7EE002A31EE021A20EE56
:105AD000010A8DED030A42E040F60840C4F202607C
